{"contracts/Voting.sol":{"Voting":{"abi":[{"anonymous":false,"inputs":[{"indexed":true,"internalType":"uint256","name":"option","type":"uint256"},{"indexed":true,"internalType":"address","name":"voter","type":"address"}],"name":"Voted","type":"event"},{"inputs":[{"internalType":"uint256","name":"option","type":"uint256"}],"name":"vote","outputs":[],"stateMutability":"nonpayable","type":"function"},{"inputs":[{"internalType":"uint256","name":"","type":"uint256"}],"name":"votes","outputs":[{"internalType":"uint256","name":"","type":"uint256"}],"stateMutability":"view","type":"function"}],"evm":{"bytecode":{"linkReferences":{},"object":"608060405234801561001057600080fd5b5061023b806100206000396000f3fe608060405234801561001057600080fd5b50600436106100365760003560e01c80630121b93f1461003b5780635df8133014610057575b600080fd5b6100556004803603810190610050919061014b565b610087565b005b610071600480360381019061006c919061014b565b6100f8565b60405161007e9190610187565b60405180910390f35b600160008083815260200190815260200160002060008282546100aa91906101d1565b925050819055503373ffffffffffffffffffffffffffffffffffffffff16817f030b0f8dcd86a031eddb071f91882edeac8173663ba775713b677b42b51be44b60405160405180910390a350565b60006020528060005260406000206000915090505481565b600080fd5b6000819050919050565b61012881610115565b811461013357600080fd5b50565b6000813590506101458161011f565b92915050565b60006020828403121561016157610160610110565b5b600061016f84828501610136565b91505092915050565b61018181610115565b82525050565b600060208201905061019c6000830184610178565b92915050565b7f4e487b7100000000000000000000000000000000000000000000000000000000600052601160045260246000fd5b60006101dc82610115565b91506101e783610115565b92508282019050808211156101ff576101fe6101a2565b5b9291505056fea2646970667358221220cd062f818b822a32ec56766d37da83609d8ebe785bad9b955d61319c27147e3464736f6c63430008140033","opcodes":"PUSH1 0x80 PUSH1 0x40 MSTORE CALLVALUE DUP1 ISZERO PUSH2 0x10 JUMPI PUSH1 0x0 DUP1 REVERT JUMPDEST POP PUSH2 0x23B DUP1 PUSH2 0x20 PUSH1 0x0 CODECOPY PUSH1 0x0 RETURN INVALID PUSH1 0x80 PUSH1 0x40 MSTORE CALLVALUE DUP1 ISZERO PUSH2 0x10 JUMPI PUSH1 0x0 DUP1 REVERT JUMPDEST POP PUSH1 0x4 CALLDATASIZE LT PUSH2 0x36 JUMPI PUSH1 0x0 CALLDATALOAD PUSH1 0xE0 SHR DUP1 PUSH4 0x121B93F EQ PUSH2 0x3B JUMPI DUP1 PUSH4 0x5DF81330 EQ PUSH2 0x57 JUMPI JUMPDEST PUSH1 0x0 DUP1 REVERT JUMPDEST PUSH2 0x55 PUSH1 0x4 DUP1 CALLDATASIZE SUB DUP2 ADD SWAP1 PUSH2 0x50 SWAP2 SWAP1 PUSH2 0x14B JUMP JUMPDEST PUSH2 0x87 JUMP JUMPDEST STOP JUMPDEST PUSH2 0x71 PUSH1 0x4 DUP1 CALLDATASIZE SUB DUP2 ADD SWAP1 PUSH2 0x6C SWAP2 SWAP1 PUSH2 0x14B JUMP JUMPDEST PUSH2 0xF8 JUMP JUMPDEST PUSH1 0x40 MLOAD PUSH2 0x7E SWAP2 SWAP1 PUSH2 0x187 JUMP JUMPDEST PUSH1 0x40 MLOAD DUP1 SWAP2 SUB SWAP1 RETURN JUMPDEST PUSH1 0x1 PUSH1 0x0 DUP1 DUP4 DUP2 MSTORE PUSH1 0x20 ADD SWAP1 DUP2 MSTORE PUSH1 0x20 ADD PUSH1 0x0 KECCAK256 PUSH1 0x0 DUP3 DUP3 SLOAD PUSH2 0xAA SWAP2 SWAP1 PUSH2 0x1D1 JUMP JUMPDEST SWAP3 POP POP DUP2 SWAP1 SSTORE POP CALLER PUSH20 0xFFFFFFFFFFFFFFFFFFFFFFFFFFFFFFFFFFFFFFFF AND DUP2 PUSH32 0x30B0F8DCD86A031EDDB071F91882EDEAC8173663BA775713B677B42B51BE44B PUSH1 0x40 MLOAD PUSH1 0x40 MLOAD DUP1 SWAP2 SUB SWAP1 LOG3 POP JUMP JUMPDEST PUSH1 0x0 PUSH1 0x20 MSTORE DUP1 PUSH1 0x0 MSTORE PUSH1 0x40 PUSH1 0x0 KECCAK256 PUSH1 0x0 SWAP2 POP SWAP1 POP SLOAD DUP2 JUMP JUMPDEST PUSH1 0x0 DUP1 REVERT JUMPDEST PUSH1 0x0 DUP2 SWAP1 POP SWAP2 SWAP1 POP JUMP JUMPDEST PUSH2 0x128 DUP2 PUSH2 0x115 JUMP JUMPDEST DUP2 EQ PUSH2 0x133 JUMPI PUSH1 0x0 DUP1 REVERT JUMPDEST POP JUMP JUMPDEST PUSH1 0x0 DUP2 CALLDATALOAD SWAP1 POP PUSH2 0x145 DUP2 PUSH2 0x11F JUMP JUMPDEST SWAP3 SWAP2 POP POP JUMP JUMPDEST PUSH1 0x0 PUSH1 0x20 DUP3 DUP5 SUB SLT ISZERO PUSH2 0x161 JUMPI PUSH2 0x160 PUSH2 0x110 JUMP JUMPDEST JUMPDEST PUSH1 0x0 PUSH2 0x16F DUP5 DUP3 DUP6 ADD PUSH2 0x136 JUMP JUMPDEST SWAP2 POP POP SWAP3 SWAP2 POP POP JUMP JUMPDEST PUSH2 0x181 DUP2 PUSH2 0x115 JUMP JUMPDEST DUP3 MSTORE POP POP JUMP JUMPDEST PUSH1 0x0 PUSH1 0x20 DUP3 ADD SWAP1 POP PUSH2 0x19C PUSH1 0x0 DUP4 ADD DUP5 PUSH2 0x178 JUMP JUMPDEST SWAP3 SWAP2 POP POP JUMP JUMPDEST PUSH32 0x4E487B7100000000000000000000000000000000000000000000000000000000 PUSH1 0x0 MSTORE PUSH1 0x11 PUSH1 0x4 MSTORE PUSH1 0x24 PUSH1 0x0 REVERT JUMPDEST PUSH1 0x0 PUSH2 0x1DC DUP3 PUSH2 0x115 JUMP JUMPDEST SWAP2 POP PUSH2 0x1E7 DUP4 PUSH2 0x115 JUMP JUMPDEST SWAP3 POP DUP3 DUP3 ADD SWAP1 POP DUP1 DUP3 GT ISZERO PUSH2 0x1FF JUMPI PUSH2 0x1FE PUSH2 0x1A2 JUMP JUMPDEST JUMPDEST SWAP3 SWAP2 POP POP JUMP INVALID LOG2 PUSH5 0x6970667358 0x22 SLT KECCAK256 0xCD MOD 0x2F DUP2 DUP12 DUP3 0x2A ORIGIN 0xEC JUMP PUSH23 0x6D37DA83609D8EBE785BAD9B955D61319C27147E346473 PUSH16 0x6C634300081400330000000000000000 "},"methodIdentifiers":{"vote(uint256)":"0121b93f","votes(uint256)":"5df81330"}}}}}